{
  "contractName": "Gestion",
  "abi": [
    {
      "anonymous": false,
      "inputs": [
        {
          "indexed": false,
          "name": "mysqlcustom",
          "type": "string"
        }
      ],
      "name": "customEvent",
      "type": "event",
      "signature": "0x818d2411fb91789e92f56372e7b3507b252d906389d61065b79c41fbb3df6169"
    },
    {
      "constant": false,
      "inputs": [
        {
          "name": "input",
          "type": "string"
        }
      ],
      "name": "setCustom",
      "outputs": [],
      "payable": false,
      "stateMutability": "nonpayable",
      "type": "function",
      "signature": "0xef8adfc3"
    },
    {
      "constant": true,
      "inputs": [],
      "name": "getCustom",
      "outputs": [
        {
          "name": "",
          "type": "string"
        }
      ],
      "payable": false,
      "stateMutability": "view",
      "type": "function",
      "signature": "0xd01ae036"
    },
    {
      "constant": false,
      "inputs": [
        {
          "name": "input",
          "type": "string"
        }
      ],
      "name": "setResult",
      "outputs": [],
      "payable": false,
      "stateMutability": "nonpayable",
      "type": "function",
      "signature": "0x88e3cfda"
    },
    {
      "constant": true,
      "inputs": [],
      "name": "getResult",
      "outputs": [
        {
          "name": "",
          "type": "string"
        }
      ],
      "payable": false,
      "stateMutability": "view",
      "type": "function",
      "signature": "0xde292789"
    },
    {
      "constant": false,
      "inputs": [
        {
          "name": "input",
          "type": "string"
        }
      ],
      "name": "CreateCustomEvent",
      "outputs": [],
      "payable": false,
      "stateMutability": "nonpayable",
      "type": "function",
      "signature": "0xf73361a4"
    }
  ],
  "bytecode": "0x60806040526040805190810160405280600881526020017f4e6f2051756572790000000000000000000000000000000000000000000000008152506000908051906020019061004f9291906100ae565b506040805190810160405280600a81526020017f4e6f2072657175657374000000000000000000000000000000000000000000008152506001908051906020019061009b9291906100ae565b503480156100a857600080fd5b50610153565b828054600181600116156101000203166002900490600052602060002090601f016020900481019282601f106100ef57805160ff191683800117855561011d565b8280016001018555821561011d579182015b8281111561011c578251825591602001919060010190610101565b5b50905061012a919061012e565b5090565b61015091905b8082111561014c576000816000905550600101610134565b5090565b90565b6106d2806101626000396000f3fe60806040526004361061006d576000357c0100000000000000000000000000000000000000000000000000000000900463ffffffff16806388e3cfda14610072578063d01ae0361461013a578063de292789146101ca578063ef8adfc31461025a578063f73361a414610322575b600080fd5b34801561007e57600080fd5b506101386004803603602081101561009557600080fd5b81019080803590602001906401000000008111156100b257600080fd5b8201836020820111156100c457600080fd5b803590602001918460018302840111640100000000831117156100e657600080fd5b91908080601f016020809104026020016040519081016040528093929190818152602001838380828437600081840152601f19601f8201169050808301925050505050505091929192905050506103ea565b005b34801561014657600080fd5b5061014f610404565b6040518080602001828103825283818151815260200191508051906020019080838360005b8381101561018f578082015181840152602081019050610174565b50505050905090810190601f1680156101bc5780820380516001836020036101000a031916815260200191505b509250505060405180910390f35b3480156101d657600080fd5b506101df6104a6565b6040518080602001828103825283818151815260200191508051906020019080838360005b8381101561021f578082015181840152602081019050610204565b50505050905090810190601f16801561024c5780820380516001836020036101000a031916815260200191505b509250505060405180910390f35b34801561026657600080fd5b506103206004803603602081101561027d57600080fd5b810190808035906020019064010000000081111561029a57600080fd5b8201836020820111156102ac57600080fd5b803590602001918460018302840111640100000000831117156102ce57600080fd5b91908080601f016020809104026020016040519081016040528093929190818152602001838380828437600081840152601f19601f820116905080830192505050505050509192919290505050610548565b005b34801561032e57600080fd5b506103e86004803603602081101561034557600080fd5b810190808035906020019064010000000081111561036257600080fd5b82018360208201111561037457600080fd5b8035906020019184600183028401116401000000008311171561039657600080fd5b91908080601f016020809104026020016040519081016040528093929190818152602001838380828437600081840152601f19601f820116905080830192505050505050509192919290505050610562565b005b8060009080519060200190610400929190610601565b5050565b606060018054600181600116156101000203166002900480601f01602080910402602001604051908101604052809291908181526020018280546001816001161561010002031660029004801561049c5780601f106104715761010080835404028352916020019161049c565b820191906000526020600020905b81548152906001019060200180831161047f57829003601f168201915b5050505050905090565b606060008054600181600116156101000203166002900480601f01602080910402602001604051908101604052809291908181526020018280546001816001161561010002031660029004801561053e5780601f106105135761010080835404028352916020019161053e565b820191906000526020600020905b81548152906001019060200180831161052157829003601f168201915b5050505050905090565b806001908051906020019061055e929190610601565b5050565b7f818d2411fb91789e92f56372e7b3507b252d906389d61065b79c41fbb3df6169816040518080602001828103825283818151815260200191508051906020019080838360005b838110156105c45780820151818401526020810190506105a9565b50505050905090810190601f1680156105f15780820380516001836020036101000a031916815260200191505b509250505060405180910390a150565b828054600181600116156101000203166002900490600052602060002090601f016020900481019282601f1061064257805160ff1916838001178555610670565b82800160010185558215610670579182015b8281111561066f578251825591602001919060010190610654565b5b50905061067d9190610681565b5090565b6106a391905b8082111561069f576000816000905550600101610687565b5090565b9056fea165627a7a72305820d8069d4fe48380205f897cf08f737b2c887cd7e6d9d8a5fb97f6ad6abca8ab1c0029",
  "source": "pragma solidity ^0.5.0;\n///////////////////////////////////////////////////////////////////////////////////////////////////////////////////////////////////////////////\n/**********************************************************STORE DATA AND EMIT EVENTS*********************************************************/\n\ncontract Gestion {\n\n\tstring result = \"No Query\"; // The result of the query is stored in this variable\n\n\tstring custom = \"No request\"; // We will store the complete custom request in this variable\n\t\n\t\n    event customEvent (string mysqlcustom);\n    // Event used to send a MySQL Query. The input is the query input. It allows to record the query\n\t\n\t\n\t\n\tfunction setCustom (string memory input) public {\n\t\tcustom = input;\n\t}\n\n\t/*\n\tFunction setCustom : \n\n\t\t- input: string\n\n\t\t- output: none\n\n\tChanges the input of the query.The new input replaces the old one, and is stored in the Blockchain.\n\tModifies the Blockchain, consumes Ether\n\n\t*/\n\n\n\tfunction getCustom () public view returns(string memory)  {\n\t\treturn custom;\n\t}\n\t\n\n\t/*\n\tFunction getCustom : \n\n\t\t- input: none\n\n\t\t- output: string\n\n\tReturns the input of the query, stored in the blockchain.\n\tOnly gives the state of a variable, does not modify the blockchain.\n\tDoes not consume Ether\n\n\t*/\n\n\n\tfunction setResult(string memory input) public {\n\t\tresult = input;\n\t}\n\n\t/*\n\tFunction setResult : \n\n\t\t- input: string\n\n\t\t- output: none\n\n\tStores the result of the last request in the variable result.\n\tModifies the Blockchain, consumes Ether\n\n\n\t*/\n\t\n\n\tfunction getResult() public view returns(string memory)  {\n\t\treturn result;\n\t}\n\t\n\t/*\n\tFunction getResult : \n\n\t\t- input: none\n\n\t\t- output: string\n\n\tReturns the result of the last query, stored in the blockchain in the variable result.\n\tOnly gives the state of a variable, does not modify the blockchain.\n\tDoes not consume Ether\n\n\t*/\n\n\t\n\n\tfunction CreateCustomEvent(string memory input) public {\n\t\temit customEvent(input);\n\t}\n\n\t/*\n\tFunction CreateCustomEvent: \n\n\t\t- input: string\n\n\t\t- output: none\n\n\tEmit a mysqlevent. The input of this event is the variable input (which is also the input of the query).\n\tThe event is written in a log in the blockchain when it is emitted.\n\n\n\t*/\n\n}\n",
  "sourcePath": "C:/Users/vacadena01/Desktop/WebDB/contracts/Gestion.sol",
  "compiler": {
    "name": "solc",
    "version": "0.5.0+commit.1d4f565a.Emscripten.clang"
  },
  "schemaVersion": "3.0.2",
  "updatedAt": "2019-02-17T22:55:12.240Z",
  "devdoc": {
    "methods": {}
  },
  "userdoc": {
    "methods": {},
    "notice": "********************************************************STORE DATA AND EMIT EVENTS********************************************************"
  }
}