{
  "contractName": "Gestion",
  "abi": [
    {
      "anonymous": false,
      "inputs": [
        {
          "indexed": false,
          "name": "mysqlcustom",
          "type": "string"
        }
      ],
      "name": "customEvent",
      "type": "event"
    },
    {
      "constant": false,
      "inputs": [
        {
          "name": "input",
          "type": "string"
        }
      ],
      "name": "setCustom",
      "outputs": [],
      "payable": false,
      "stateMutability": "nonpayable",
      "type": "function"
    },
    {
      "constant": true,
      "inputs": [],
      "name": "getCustom",
      "outputs": [
        {
          "name": "",
          "type": "string"
        }
      ],
      "payable": false,
      "stateMutability": "view",
      "type": "function"
    },
    {
      "constant": false,
      "inputs": [
        {
          "name": "input",
          "type": "string"
        }
      ],
      "name": "setResult",
      "outputs": [],
      "payable": false,
      "stateMutability": "nonpayable",
      "type": "function"
    },
    {
      "constant": true,
      "inputs": [],
      "name": "getResult",
      "outputs": [
        {
          "name": "",
          "type": "string"
        }
      ],
      "payable": false,
      "stateMutability": "view",
      "type": "function"
    },
    {
      "constant": false,
      "inputs": [
        {
          "name": "input",
          "type": "string"
        }
      ],
      "name": "CreateCustomEvent",
      "outputs": [],
      "payable": false,
      "stateMutability": "nonpayable",
      "type": "function"
    }
  ],
  "bytecode": "0x60806040526040805190810160405280600881526020017f4e6f2051756572790000000000000000000000000000000000000000000000008152506000908051906020019061004f9291906100ae565b506040805190810160405280600a81526020017f4e6f2072657175657374000000000000000000000000000000000000000000008152506001908051906020019061009b9291906100ae565b503480156100a857600080fd5b50610153565b828054600181600116156101000203166002900490600052602060002090601f016020900481019282601f106100ef57805160ff191683800117855561011d565b8280016001018555821561011d579182015b8281111561011c578251825591602001919060010190610101565b5b50905061012a919061012e565b5090565b61015091905b8082111561014c576000816000905550600101610134565b5090565b90565b6105b5806101626000396000f30060806040526004361061006d576000357c0100000000000000000000000000000000000000000000000000000000900463ffffffff16806388e3cfda14610072578063d01ae036146100db578063de2927891461016b578063ef8adfc3146101fb578063f73361a414610264575b600080fd5b34801561007e57600080fd5b506100d9600480360381019080803590602001908201803590602001908080601f01602080910402602001604051908101604052809392919081815260200183838082843782019150505050505091929192905050506102cd565b005b3480156100e757600080fd5b506100f06102e7565b6040518080602001828103825283818151815260200191508051906020019080838360005b83811015610130578082015181840152602081019050610115565b50505050905090810190601f16801561015d5780820380516001836020036101000a031916815260200191505b509250505060405180910390f35b34801561017757600080fd5b50610180610389565b6040518080602001828103825283818151815260200191508051906020019080838360005b838110156101c05780820151818401526020810190506101a5565b50505050905090810190601f1680156101ed5780820380516001836020036101000a031916815260200191505b509250505060405180910390f35b34801561020757600080fd5b50610262600480360381019080803590602001908201803590602001908080601f016020809104026020016040519081016040528093929190818152602001838380828437820191505050505050919291929050505061042b565b005b34801561027057600080fd5b506102cb600480360381019080803590602001908201803590602001908080601f0160208091040260200160405190810160405280939291908181526020018383808284378201915050505050509192919290505050610445565b005b80600090805190602001906102e39291906104e4565b5050565b606060018054600181600116156101000203166002900480601f01602080910402602001604051908101604052809291908181526020018280546001816001161561010002031660029004801561037f5780601f106103545761010080835404028352916020019161037f565b820191906000526020600020905b81548152906001019060200180831161036257829003601f168201915b5050505050905090565b606060008054600181600116156101000203166002900480601f0160208091040260200160405190810160405280929190818152602001828054600181600116156101000203166002900480156104215780601f106103f657610100808354040283529160200191610421565b820191906000526020600020905b81548152906001019060200180831161040457829003601f168201915b5050505050905090565b80600190805190602001906104419291906104e4565b5050565b7f818d2411fb91789e92f56372e7b3507b252d906389d61065b79c41fbb3df6169816040518080602001828103825283818151815260200191508051906020019080838360005b838110156104a757808201518184015260208101905061048c565b50505050905090810190601f1680156104d45780820380516001836020036101000a031916815260200191505b509250505060405180910390a150565b828054600181600116156101000203166002900490600052602060002090601f016020900481019282601f1061052557805160ff1916838001178555610553565b82800160010185558215610553579182015b82811115610552578251825591602001919060010190610537565b5b5090506105609190610564565b5090565b61058691905b8082111561058257600081600090555060010161056a565b5090565b905600a165627a7a723058203fcbaaf352a5adabc030ae3369cb5d85e70fb89007c2f7799b9726a181c915960029",
  "source": "pragma solidity ^0.4.21;\n///////////////////////////////////////////////////////////////////////////////////////////////////////////////////////////////////////////////\n/**********************************************************STORE DATA AND EMIT EVENTS*********************************************************/\n\ncontract Gestion {\n\n\tstring result = \"No Query\"; // The result of the query is stored in this variable\n\n\tstring custom = \"No request\"; // We will store the complete custom request in this variable\n\t\n\t\n    event customEvent (string mysqlcustom);\n    // Event used to send a MySQL Query. The input is the query input. It allows to record the query\n\t\n\t\n\t\n\tfunction setCustom (string input) public {\n\t\tcustom = input;\n\t}\n\n\t/*\n\tFunction setCustom : \n\n\t\t- input: string\n\n\t\t- output: none\n\n\tChanges the input of the query.The new input replaces the old one, and is stored in the Blockchain.\n\tModifies the Blockchain, consumes Ether\n\n\t*/\n\n\n\tfunction getCustom () public constant returns(string)  {\n\t\treturn custom;\n\t}\n\t\n\n\t/*\n\tFunction getCustom : \n\n\t\t- input: none\n\n\t\t- output: string\n\n\tReturns the input of the query, stored in the blockchain.\n\tOnly gives the state of a variable, does not modify the blockchain.\n\tDoes not consume Ether\n\n\t*/\n\n\n\tfunction setResult(string input) public {\n\t\tresult = input;\n\t}\n\n\t/*\n\tFunction setResult : \n\n\t\t- input: string\n\n\t\t- output: none\n\n\tStores the result of the last request in the variable result.\n\tModifies the Blockchain, consumes Ether\n\n\n\t*/\n\t\n\n\tfunction getResult() public constant returns(string)  {\n\t\treturn result;\n\t}\n\t\n\t/*\n\tFunction getResult : \n\n\t\t- input: none\n\n\t\t- output: string\n\n\tReturns the result of the last query, stored in the blockchain in the variable result.\n\tOnly gives the state of a variable, does not modify the blockchain.\n\tDoes not consume Ether\n\n\t*/\n\n\t\n\n\tfunction CreateCustomEvent(string input) public {\n\t\temit customEvent(input);\n\t}\n\n\t/*\n\tFunction CreateMySQLEvent: \n\n\t\t- input: string\n\n\t\t- output: none\n\n\tEmit a mysqlevent. The input of this event is the variable input (which is also the input of the query).\n\tThe event is written in a log in the blockchain when it is emitted.\n\n\n\t*/\n\n}\n",
  "sourcePath": "C:\\Users\\Javi-GISAI\\Proyectos\\WebDB\\contracts\\Gestion.sol",
  "compiler": {
    "name": "solc",
    "version": "0.4.24+commit.e67f0147.Emscripten.clang"
  },
  "schemaVersion": "2.0.0",
  "updatedAt": "2018-09-03T09:11:54.585Z"
}